:020000040800F2
:1000000000000220A1430008D5070008E30700080C
:10001000E9070008EF070008F507000800000000E6
:10002000000000000000000000000000FB070008C6
:10003000090800080000000017080008250800084B
:10004000F1430008F1430008F1430008F1430008C0
:10005000F1430008F1430008F1430008F1430008B0
:10006000F1430008F1430008F1430008F1430008A0
:10007000F1430008F1430008F1430008F143000890
:10008000F1430008F1430008F1430008F143000880
:10009000F1430008F1430008F1430008F143000870
:1000A000F1430008F1430008F1430008F143000860
:1000B000F1430008F1430008F1430008F143000850
:1000C000F14300083108000845080008F143000822
:1000D000F1430008F1430008F14300085908000803
:1000E000F1430008F1430008F1430008F143000820
:1000F000F1430008F1430008F1430008F143000810
:10010000F1430008F1430008F1430008F1430008FF
:10011000F1430008F1430008F1430008F1430008EF
:10012000F1430008F1430008F1430008F1430008DF
:10013000F1430008F1430008F1430008F1430008CF
:10014000F1430008F1430008F1430008F1430008BF
:10015000F1430008F1430008F1430008F1430008AF
:10016000F1430008F1430008F1430008F14300089F
:10017000F1430008F1430008F143000800000000CB
:08018000F1430008F1430008FF
:1001880010B5054C237833B9044B13B10448AFF3C9
:1001980000800123237010BD7000002000000000C3
:1001A800344D000808B5034B1BB103490348AFF3AE
:1001B800008008BD0000000074000020344D0008D5
:1001C80053B94AB9002908BF00281CBF4FF0FF31B6
:1001D8004FF0FF3000F07AB9ADF1080C6DE904CEAC
:1001E80000F006F8DDF804E0DDE9022304B070470A
:1001F8002DE9F0478C460D460446089E002B51D148
:100208008A4217466DD9B2FA82FEBEF1000F0BD0B2
:10021800CEF1200C01FA0EF520FA0CFC02FA0EF7CA
:100228004CEA050C00FA0EF44FEA174A250CBCFB01
:10023800FAF81FFA87F90AFB18CC45EA0C4508FBBF
:1002480009F3AB420AD9ED1908F1FF3280F0238196
:10025800AB4240F22081A8F102083D44ED1AA4B255
:10026800B5FBFAF00AFB105544EA054400FB09F90E
:10027800A14509D9E41900F1FF3380F00A81A145AD
:1002880040F2078102383C44A4EB090440EA0840E4
:100298000021002E61D024FA0EF40023346073602C
:1002A800BDE8F0878B4207D9002E54D0002186E89C
:1002B80021000846BDE8F087B3FA83F1002940F031
:1002C8008E80AB4202D3824200F2FA80841A65EB38
:1002D80003050120AC46002E3FD086E81010BDE88B
:1002E800F08712B90127B7FBF2F7B7FA87FEBEF11C
:1002F800000F34D1EB1B3A0C1FFA87FC0121B3FB2A
:10030800F2F8250C02FB183345EA03450CFB08F309
:10031800AB4207D9ED1908F1FF3002D2AB4200F227
:10032800D1808046ED1AA3B2B5FBF2F002FB10555E
:1003380043EA05440CFB00FCA44507D9E41900F185
:10034800FF3302D2A44500F2B8801846A4EB0C048F
:1003580040EA08409DE731463046BDE8F087CEF1D7
:10036800200405FA0EF307FA0EF720FA04F83A0CFF
:1003780025FA04F448EA0308B4FBF2F14FEA1845F9
:1003880002FB11441FFA87FC45EA044501FB0CF304
:10039800AB4200FA0EF409D9ED1901F1FF3080F0F3
:1003A8008A80AB4240F2878002393D44EB1A1FFA3B
:1003B80088F5B3FBF2F002FB103345EA034500FB76
:1003C8000CF3AB4207D9ED1900F1FF386FD2AB42FD
:1003D8006DD902383D44EB1A40EA01418FE7C1F17B
:1003E800200722FA07F88B4005FA01F448EA0303CC
:1003F80020FA07FE4FEA134CFD404EEA040EB5FB07
:10040800FCF94FEA1E440CFB19551FFA83F844EA1D
:10041800054509FB08F4AC4202FA01F200FA01FAB8
:1004280008D9ED1809F1FF3043D2AC4241D9A9F1FE
:1004380002091D442D1B1FFA8EFEB5FBFCF00CFBB8
:1004480010554EEA054400FB08F8A04507D9E41802
:1004580000F1FF3529D2A04527D902381C4440EACB
:100468000940A4EB0804A0FB02894C45C6464D464A
:1004780015D312D056B1BAEB0E0364EB050404FA97
:1004880007F7CB401F43CC40376074600021BDE8BC
:10049800F0871846F8E69046E0E6C245EAD2B8EB9F
:1004A800020E69EB03050138E4E72846D7E7404622
:1004B80091E78146BEE7014678E702383C4445E7C4
:1004C800084608E7A8F102083D442BE7704700BF3B
:1004D80080B485B000AF0023FB60174A164B1B6B36
:1004E80043F080031363144B1B6B03F08003FB6022
:1004F800FB680023BB60104A0F4B1B6B43F00203E1
:1005080013630D4B1B6B03F00203BB60BB68002336
:100518007B60094A084B1B6B43F004031363064BCB
:100528001B6B03F004037B607B6800BF1437BD4678
:100538005DF8047B704700BF0038024080B500AF0B
:10054800124B134A1A60114B124A5A600F4B002281
:100558009A600E4B0022DA600C4B4FF480421A610D
:100568000A4B00225A61094B00229A61074B00226C
:10057800DA61064B00221A62044800F0EFFD0346D8
:10058800002B01D000F0F2F800BF80BD98000020D9
:1005980000580040A086010080B58AB000AF78609E
:1005A80007F1140300221A605A609A60DA601A612F
:1005B8007B681B68214A93423CD100233B61204A57
:1005C8001F4B1B6B43F0020313631D4B1B6B03F0A4
:1005D80002033B613B694FF4E0537B611223BB612B
:1005E8000123FB6103233B6204237B6207F11403AD
:1005F8001946144800F018FC0023FB60104A104B01
:100608001B6C43F4800313640D4B1B6C03F48003D1
:10061800FB60FB6800220021212000F09EFB2120C6
:1006280000F0B7FB00220021222000F096FB2220D8
:1006380000F0AFFB00BF2837BD4680BD0058004022
:10064800003802400004024080B483B000AF7860F4
:1006580000BF0C37BD465DF8047B704780B584B099
:1006680000AFF860B9607A607B689AB20A23B9680B
:10067800034802F0D1FF7B6818461037BD4680BD9D
:10068800EC00002080B500AF00F0FAF900F010F897
:10069800FFF71EFFFFF752FF00F078F9034803F059
:1006A80033FF4FF47A7000F05DFAF7E74C4D00081D
:1006B80080B594B000AF07F120033022002118461E
:1006C80003F0BEFE07F10C0300221A605A609A601C
:1006D800DA601A610023BB60224A224B1B6C43F08C
:1006E800805313641F4B1B6C03F08053BB60BB68C3
:1006F80000237B601C4A1C4B1B6843F48043136037
:10070800194B1B6803F480437B607B6802233B62C0
:100718000123FB6210233B630023BB6307F1200323
:10072800184602F0DFFA0346002B01D000F01EF84D
:100738000F23FB6000233B6100237B610023BB6127
:100748000023FB6107F10C030021184602F03AFD73
:100758000346002B01D000F009F800BF5037BD4612
:1007680080BD00BF003802400070004080B400AF78
:1007780000BFBD465DF8047B7047000080B483B0BD
:1007880000AF00237B60104A0F4B5B6C43F480433F
:1007980053640D4B5B6C03F480437B607B680023E0
:1007A8003B60094A084B1B6C43F080531364064BAB
:1007B8001B6C03F080533B603B6800BF0C37BD46A1
:1007C8005DF8047B704700BF0038024080B400AF7A
:1007D80000BFBD465DF8047B704780B400AFFEE7FC
:1007E80080B400AFFEE780B400AFFEE780B400AF8E
:1007F800FEE780B400AF00BFBD465DF8047B7047DC
:1008080080B400AF00BFBD465DF8047B704780B47C
:1008180000AF00BFBD465DF8047B704780B500AFF0
:1008280000F080F900BF80BD80B500AF024800F03D
:10083800CDFD00BF80BD00BF9800002080B500AF8F
:10084800024800F012FF00BF80BD00BF98000020E2
:1008580080B500AF024802F077FF00BF80BD00BF3F
:10086800EC00002090B587B000AFF860B9607A60FE
:1008780000237B610AE0BC68631CBB60AFF30080A7
:100888000346DBB223707B6901337B617A697B683D
:100898009A42F0DB7B6818461C37BD4690BD0000C5
:1008A80080B584B000AF7860114B1B68002B02D173
:1008B8000F4B104A1A600E4B1B68FB600C4B1A68F2
:1008C8007B6813446A46934207D903F08FFD0246BA
:1008D8000C2313604FF0FF3306E0054B1A687B6862
:1008E8001344034A1360FB6818461037BD4680BDA1
:1008F8008C0000206001002080B483B000AF7860D5
:100908004FF0FF3318460C37BD465DF8047B70473F
:1009180080B483B000AF786039603B684FF4005210
:100928005A60002318460C37BD465DF8047B7047B3
:1009380080B483B000AF7860012318460C37BD46F9
:100948005DF8047B704780B485B000AFF860B9608B
:100958007A60002318461437BD465DF8047B70475B
:1009680080B400AF084A084BD3F8883043F47003CA
:10097800C2F88830044B4FF000629A6000BFBD4651
:100988005DF8047B704700BF00ED00E080B500AF64
:10099800114B124A1A60104B4FF4E1325A600E4B59
:1009A80000229A600C4B0022DA600B4B00221A617D
:1009B800094B0C225A61084B00229A61064B00220F
:1009C800DA61054802F0CEFD0346002B01D0FFF79F
:1009D800CDFE00BF80BD00BFEC00002000480040F5
:1009E80080B58AB000AF786007F1140300221A605E
:1009F8005A609A60DA601A617B681B681D4A9342E4
:100A080034D100233B611C4A1B4B1B6C43F48023ED
:100A18001364194B1B6C03F480233B613B6900236F
:100A2800FB60154A144B1B6B43F004031363124B12
:100A38001B6B03F00403FB60FB684FF440637B61AE
:100A48000223BB610023FB6103233B6207237B6214
:100A580007F114031946094800F0E6F900220021BD
:100A6800272000F07AF9272000F093F900BF2837F3
:100A7800BD4680BD004800400038024000080240E2
:100A880080B500AF0E4A0E4B1B6843F40073136029
:100A98000B4A0B4B1B6843F480631360084A084BEE
:100AA8001B6843F480731360032000F04BF90020A7
:100AB80000F008F8FFF762FE0023184680BD00BF6B
:100AC800003C024080B582B000AF7860124B1A68D3
:100AD800124B1B7819464FF47A73B3FBF1F3B2FB50
:100AE800F3F3184600F063F90346002B01D0012305
:100AF8000EE07B680F2B0AD8002279684FF0FF3090
:100B080000F02BF9064A7B681360002300E00123FC
:100B180018460837BD4680BD0000002008000020A8
:100B28000400002080B400AF064B1B781A46064B21
:100B38001B681344044A136000BFBD465DF8047B7C
:100B4800704700BF080000205801002080B400AFA3
:100B5800034B1B681846BD465DF8047B704700BF11
:100B68005801002080B584B000AF7860FFF7EEFF31
:100B7800B8607B68FB60FB68B3F1FF3F05D0094BA9
:100B88001B781A46FB681344FB6000BFFFF7DEFFC3
:100B98000246BB68D21AFB689A42F7D300BF1037E7
:100BA800BD4680BD0800002080B485B000AF7860E5
:100BB8007B6803F00703FB600C4BDB68BB60BA681B
:100BC8004FF6FF031340BB60FB681A02BB68134370
:100BD80043F0BF6343F40033BB60044ABB68D3608F
:100BE80000BF1437BD465DF8047B704700ED00E098
:100BF80080B400AF044BDB681B0A03F007031846F8
:100C0800BD465DF8047B704700ED00E080B483B01A
:100C180000AF0346FB7197F90730002B0BDB09493E
:100C280097F907305B09FA7902F01F02012000FAF0
:100C380002F241F8232000BF0C37BD465DF8047B63
:100C4800704700BF00E100E080B483B000AF034606
:100C58003960FB7197F90730002B0ADB0D4997F9CA
:100C680007303A68D2B21201D2B20B4483F800239B
:100C78000AE00949FB7903F00F03043B3A68D2B252
:100C88001201D2B20B441A7600BF0C37BD465DF88C
:100C9800047B704700E100E000ED00E080B489B01B
:100CA80000AFF860B9607A60FB6803F00703FB6186
:100CB800FB69C3F10703042B28BF0423BB61FB694D
:100CC8000433062B02D9FB69033B00E000237B6158
:100CD8000122BB6902FA03F35A1EBB681A407B69FA
:100CE8009A4001217B6901FA03F3591E7B680B4086
:100CF800134318462437BD465DF8047B704700004F
:100D080080B582B000AF78607B68013BB3F1807F2B
:100D180001D301230FE00A4A7B68013B53600F218E
:100D28004FF0FF30FFF790FF054B00229A60044B0D
:100D380007221A60002318460837BD4680BD00BF49
:100D480010E000E080B582B000AF78607868FFF707
:100D58002BFF00BF0837BD4680BD80B586B000AF09
:100D68000346B9607A60FB7300237B61FFF740FF9D
:100D780078617A68B9687869FFF790FF024697F951
:100D88000F3011461846FFF75FFF00BF1837BD4602
:100D980080BD80B582B000AF0346FB7197F907307C
:100DA8001846FFF733FF00BF0837BD4680BD80B542
:100DB80082B000AF78607868FFF7A2FF0346184654
:100DC8000837BD4680BD80B483B000AF78607B68CB
:100DD80093F83530DBB2022B04D07B6880225A6549
:100DE80001230CE07B68052283F835207B681B68AB
:100DF8007A681268126822F001021A600023184605
:100E08000C37BD465DF8047B704780B483B000AFF3
:100E180078607B6893F83530DBB218460C37BD46EE
:100E28005DF8047B7047000080B489B000AF78603B
:100E3800396000237B6100233B610023BB610023F1
:100E4800FB616BE10122FB6902FA03F37B613B68FA
:100E58001A687B6913403B613A697B699A4240F0A2
:100E68005A813B685B68012B0BD03B685B68022B9F
:100E780007D03B685B68112B03D03B685B68122B7B
:100E880030D17B689B68BB61FB695B00032202FA77
:100E980003F3DB43BA691340BB613B68DA68FB695B
:100EA8005B0002FA03F3BA691343BB617B68BA6952
:100EB8009A607B685B68BB610122FB6902FA03F3F5
:100EC800DB43BA691340BB613B685B681B0903F0ED
:100ED8000102FB6902FA03F3BA691343BB617B6839
:100EE800BA695A607B68DB68BB61FB695B000322F7
:100EF80002FA03F3DB43BA691340BB613B689A68A3
:100F0800FB695B0002FA03F3BA691343BB617B68B0
:100F1800BA69DA603B685B68022B03D03B685B68A0
:100F2800122B23D1FB69DA087B68083253F8223088
:100F3800BB61FB6903F007039B000F2202FA03F36E
:100F4800DB43BA691340BB613B681A69FB6903F06C
:100F580007039B0002FA03F3BA691343BB61FB69F9
:100F6800DA087B680832B96943F822107B681B6885
:100F7800BB61FB695B00032202FA03F3DB43BA6936
:100F88001340BB613B685B6803F00302FB695B00CD
:100F980002FA03F3BA691343BB617B68BA691A6042
:100FA8003B685B6803F08053002B00F0B48000239B
:100FB800FB605F4A5E4B5B6C43F4804353645C4B5D
:100FC8005B6C03F48043FB60FB685A4AFB699B082F
:100FD800023352F82330BB61FB6903F003039B0023
:100FE8000F2202FA03F3DB43BA691340BB617B6843
:100FF800514A93422BD07B68504A934225D07B6854
:101008004F4A93421FD07B684E4A934219D07B685F
:101018004D4A934213D07B684C4A93420DD07B686B
:101028004B4A934207D07B684A4A934201D107232F
:101038000EE008230CE006230AE0052308E0042359
:1010480006E0032304E0022302E0012300E000237A
:10105800FA6902F0030292009340BA691343BB6134
:101068003449FB699B080233BA6941F823203A4B9B
:101078001B68BB613B69DB43BA691340BB613B68D2
:101088005B6803F48033002B03D0BA693B691343D0
:10109800BB61314ABB6913602F4B5B68BB613B691D
:1010A800DB43BA691340BB613B685B6803F40033F8
:1010B800002B03D0BA693B691343BB61264ABB695D
:1010C8005360254B9B68BB613B69DB43BA6913409E
:1010D800BB613B685B6803F48013002B03D0BA69DB
:1010E8003B691343BB611C4ABB6993601A4BDB68BD
:1010F800BB613B69DB43BA691340BB613B685B6812
:1011080003F40013002B03D0BA693B691343BB6196
:10111800114ABB69D360FB690133FB61FB690F2B83
:101128007FF690AE00BF2437BD465DF8047B70475C
:10113800003802400038014000000240000402402C
:1011480000080240000C0240001002400014024057
:1011580000180240001C0240003C014090B585B0D8
:1011680000AF78607B68002B01D101231FE17B6809
:1011780093F83D30DBB2002B06D17B68002283F860
:101188003C207868FFF708FA7B68242283F83D2022
:101198007B681B687A681268126822F001021A607C
:1011A8007B681B687A681268126842F400421A6009
:1011B8007B681B687A681268126822F400421A6019
:1011C80002F0A8F9F8607B685B687B4A934207D80D
:1011D800FB687A4A934294BF01230023DBB206E0FE
:1011E800FB68774A934294BF01230023DBB2002BAC
:1011F80001D00123DBE0FB68724AA2FB03239B0CAE
:10120800BB607B681B687A681268526822F03F01ED
:10121800BA680A435A607B681A687B681B681B6A4D
:1012280023F03F017B685B686348834202D8BB6850
:10123800013309E0BB684FF4967000FB03F3624882
:10124800A0FB03039B0901330B4313627B681868F7
:101258007B681B68DB6923F44F4222F0FF027B683E
:101268005B6855498B420DD8FB68591E7B685B68E3
:101278005B00B1FBF3F30133C3F30B03042B38BF5B
:1012880004234FE07B689B68002B11D1FB685C1E30
:101298007B6859680B465B000B44B4FBF3F30133DE
:1012A800C3F30B03002B0CBF01230023DBB212E0B6
:1012B800FB685C1E7B6859680B469B000B449900D1
:1012C8000B44B4FBF3F30133C3F30B03002B0CBF44
:1012D80001230023DBB2002B01D0012322E07B682D
:1012E8009B68002B0ED1FB685C1E7B6859680B4617
:1012F8005B000B44B4FBF3F30133C3F30B0343F478
:1013080000430FE0FB685C1E7B6859680B469B0036
:101318000B4499000B44B4FBF3F30133C3F30B0301
:1013280043F440431343C3617B681B687A681268BF
:10133800126822F0C0017A68D0697A68126A02439A
:101348000A431A607B681A687B681B689B6823F4E9
:10135800034323F0FF03796808697968C968014382
:101368000B4393607B681B687A681268D26822F026
:10137800FF017A6850697A68926902430A43DA6021
:101388007B681B687A681268126842F001021A606A
:101398007B6800221A647B68202283F83D207B68E2
:1013A80000221A637B68002283F83E200023184637
:1013B8001437BD4690BD00BFA08601007F841E0083
:1013C800FF083D0083DE1B43D34D621080B588B013
:1013D80000AF78600023BB617B681B685B687B613A
:1013E8007B68DB6A3B617B6893F83E30FB737B6804
:1013F80093F83D30BB73FB7B102B03D0FB7B402B5A
:1014080040F0AD807B681B689B69BB617B681B688B
:101418005B69FB61FB6903F00103002B0DD13B699C
:10142800B3F52A0F03D03B69B3F12A4F01D1012349
:1014380000E00023012B00F01081FB6903F0010399
:10144800002B0BD07B6903F40073002B06D078685F
:1014580001F02CFC786800F03DFD7FE0FB6903F0AB
:101468000803002B08D07B6903F40073002B03D01A
:10147800786800F0B3FD71E0FB6903F00203002B0C
:1014880008D07B6903F40073002B03D0786800F060
:10149800CFFD63E0BB6903F00403002B32D07B6807
:1014A8001B685B6803F40063B3F5006F00F0D78036
:1014B800FB6903F08003002B0DD07B6903F4806384
:1014C800002B08D0FB6903F00403002B03D17868D4
:1014D80000F0D2F942E0FB6903F00403002B00F0AE
:1014E800BE807B6903F40073002B00F0B880FB7B9F
:1014F800102B03D1786800F05BFAB0E0786800F050
:10150800BFFAACE07B681B685B6803F40063B3F563
:10151800006F00F0A480FB6903F04003002B0DD09E
:101528007B6903F48063002B08D0FB6903F0040394
:10153800002B03D1786800F032FB0FE0FB6903F061
:101548000403002B00F08B807B6903F40073002BED
:1015580000F08580786800F0D3FB80E07FE07B684E
:101568001B6C002B04D07B681B685B69FB6107E080
:101578007B681B689B69BB617B681B685B69FB6157
:10158800FB6903F00203002B11D07B6903F400739D
:10159800002B0CD07B681B6C002B03D07B681B686E
:1015A8009B69BB61B969786800F091FF5AE0FB69F3
:1015B80003F01003002B08D07B6903F40073002BA1
:1015C80003D0786800F0C6FF4CE0BB7B212B02D02B
:1015D800BB7B292B20D1FB6903F08003002B0DD0A6
:1015E8007B6903F48063002B08D0FB6903F00403D4
:1015F800002B03D1786800F0ACFE32E0FB6903F001
:101608000403002B2DD07B6903F40073002B28D032
:10161800786800F0DBFE24E0FB6903F04003002B50
:101628000DD07B6903F48063002B08D0FB6903F0BD
:101638000403002B03D1786800F0E9FE12E0FB698F
:1016480003F00403002B0DD07B6903F40073002B17
:1016580008D0786800F019FF04E000BF02E000BF7E
:1016680000E000BF2037BD4680BD80B58AB000AF1E
:1016780078607B681B685B693B627B681B685B689A
:10168800FB6100237B627B6893F83E30FB763B6A04
:1016980003F48073002B0DD0FB6903F48073002BD7
:1016A80008D07B6A43F001037B627B681B686FF498
:1016B80080725A613B6A03F40073002B0DD0FB69FA
:1016C80003F48073002B08D07B6A43F002037B622B
:1016D8007B681B686FF400725A613B6A03F480638D
:1016E800002B3ED0FB6903F48073002B39D0FB7EBE
:1016F800BB767B685B8D9BB27B617B6893F83D30E2
:10170800FB747B681B6BFB60BB7E202B12D17B6953
:10171800002B0FD1FB7C212B08D0FB7C292B05D07B
:10172800FB7C282B06D1FB68212B03D1786801F0BC
:1017380041F816E07B681B686FF480625A617B6A27
:1017480043F004037B62FB7E102B02D0FB7E402B10
:1017580007D17B681B687A681268126842F40072C5
:101768001A603B6A03F40063002B0DD0FB6903F495
:101778008073002B08D07B6A43F008037B627B6888
:101788001B686FF400625A617B6A002B08D07B6883
:101798001A6C7B6A1A437B681A64786801F07AF8D5
:1017A80000BF2837BD4680BD80B483B000AF7860E5
:1017B80000BF0C37BD465DF8047B704780B483B02A
:1017C80000AF786000BF0C37BD465DF8047B7047FA
:1017D80080B483B000AF786000BF0C37BD465DF8B9
:1017E800047B704780B483B000AF786000BF0C37CB
:1017F800BD465DF8047B704780B483B000AF786065
:101808000B46FB7013463B8000BF0C37BD465DF8A6
:10181800047B704780B483B000AF786000BF0C379A
:10182800BD465DF8047B704780B483B000AF786034
:1018380000BF0C37BD465DF8047B704780B483B0A9
:1018480000AF786000BF0C37BD465DF8047B704779
:1018580080B483B000AF786000BF0C37BD465DF838
:10186800047B704780B483B000AF786000BF0C374A
:10187800BD465DF8047B704780B584B000AF7860E2
:101888007B6893F83D30FB737B6893F83E30BB73FD
:101898007B68DB6ABB607B681B8D002B50D1FB7BB0
:1018A800212B4DD1BB68082B1DD0BB68202B1AD02B
:1018B800BB6813F5803F16D07B681B687A6812688E
:1018C800526822F4E0625A607B6811221A637B68CE
:1018D800002283F83E207B68202283F83D20786828
:1018E800FFF762FF60E07B681B687A6812685268DD
:1018F80022F4E0625A607B681B687A681268126892
:1019080042F400721A607B6800221A637B68202206
:1019180083F83D207B6893F83E30DBB2402B07D13B
:101928007B68002283F83E207868FFF77DFF3BE064
:101938007B68002283F83E207868FFF735FF33E0A4
:10194800FB7B212B05D0BB7B402B2DD1FB7B222B96
:101958002AD17B685B8D9BB2002B08D17B681B6802
:101968007A681268526822F480625A601CE07B68C8
:1019780093F83E30DBB2402B03D1786800F080F852
:1019880012E07B681B687A68526A12781A617B6871
:101998005B6A5A1C7B685A627B685B8D9BB2013B11
:1019A8009AB27B685A85FFE700BF1037BD4680BDF5
:1019B80080B584B000AF78607B68DB6AFB607B68C9
:1019C80093F83D30DBB2212B56D17B685B8D9BB2FF
:1019D800002B12D07B681B687A68526A12781A61E9
:1019E8007B685B6A5A1C7B685A627B685B8D9BB21A
:1019F800013B9AB27B685A853EE0FB68082B1DD0F4
:101A0800FB68202B1AD0FB6813F5803F16D07B6843
:101A18001B687A681268526822F4E0625A607B6830
:101A280011221A637B68002283F83E207B682022FB
:101A380083F83D207868FFF7B7FE1DE07B681B68D8
:101A48007A681268526822F4E0625A607B681B6800
:101A58007A681268126842F400721A607B68002281
:101A68001A637B68202283F83D207B68002283F874
:101A78003E207868FFF798FE00BF1037BD4680BD4E
:101A880080B584B000AF78607B6893F83D30FB7315
:101A98007B681B6D002B1DD17B68DB6C012B0BD188
:101AA8007B681B687A68926CD2B21A617B681B6D7E
:101AB8009A1C7B681A656EE07B681B687A68926C72
:101AC80092B21212D2B21A617B681B6D5A1C7B68E3
:101AD8001A6560E07B681B6D012B0BD17B681B6866
:101AE8007A68926CD2B21A617B681B6D5A1C7B684B
:101AF8001A6550E07B681B6D022B4CD1FB7B222BB7
:101B080008D17B681B687A681268126842F4807290
:101B18001A6040E07B685B8D9BB2002B15D0FB7B85
:101B2800212B12D17B681B687A68526A12781A6175
:101B38007B685B6A5A1C7B685A627B685B8D9BB2C8
:101B4800013B9AB27B685A8525E07B685B8D9BB226
:101B5800002B20D1FB7B212B1DD17B681B687A6869
:101B68001268526822F4E0625A607B681B687A68DF
:101B78001268126842F400721A607B6800221A63C5
:101B88007B68202283F83D207B68002283F83E2072
:101B98007868FFF749FE00BF1037BD4680BD80B5A5
:101BA80084B000AF78607B6893F83D30DBB2222BBD
:101BB80040F0A2807B685B8D9BB2FB60FB68032BC7
:101BC80021D97B685B6A7A6812681269D2B21A7086
:101BD8007B685B6A5A1C7B685A627B685B8D9BB228
:101BE800013B9AB27B685A857B685B8D9BB2032B5D
:101BF80040F082807B681B687A681268526822F419
:101C080080625A6078E07B68DB6A022B74D0FB68DC
:101C1800012B02D0FB68002B6ED1786801F014F814
:101C28000346002B42D17B681B687A6812681268E9
:101C380022F480621A607B681B687A6812685268AE
:101C480022F4E0625A607B685B6A7A6812681269FB
:101C5800D2B21A707B685B6A5A1C7B685A627B68CE
:101C68005B8D9BB2013B9AB27B685A857B682022C8
:101C780083F83D207B6893F83E30DBB2402B0AD1D5
:101C88007B68002283F83E207B6800221A6378680C
:101C9800FFF7D4FD30E07B68002283F83E207B68A4
:101CA80012221A637868FFF789FD25E07B681B68B4
:101CB8007A681268526822F4E0625A607B685B6A4C
:101CC8007A6812681269D2B21A707B685B6A5A1C09
:101CD8007B685A627B685B8D9BB2013B9AB27B68DA
:101CE8005A857B68202283F83D207B68002283F890
:101CF8003E207868FFF7ACFD00BF1037BD4680BDB9
:101D080080B584B000AF78607B68DB6AFB607B6875
:101D18005B8D9BB2042B1BD17B681B687A681268A9
:101D2800526822F480625A607B685B6A7A6812683B
:101D38001269D2B21A707B685B6A5A1C7B685A6255
:101D48007B685B8D9BB2013B9AB27B685A85BDE08C
:101D58007B685B8D9BB2032B29D17B681B687A68F3
:101D68001268526822F480625A60FB68042B0AD019
:101D7800FB68022B07D07B681B687A6812681268B8
:101D880022F480621A607B685B6A7A68126812695A
:101D9800D2B21A707B685B6A5A1C7B685A627B688D
:101DA8005B8D9BB2013B9AB27B685A858EE07B685B
:101DB8005B8D9BB2022B76D1FB68012B02D0FB68AE
:101DC800102B08D17B681B687A681268126822F4A5
:101DD80080621A6019E0FB68042B02D0FB68022BB2
:101DE80008D17B681B687A681268126842F48062BE
:101DF8001A600AE0FB68102B07D07B681B687A68BA
:101E08001268126842F400721A607B685B6A7A682A
:101E180012681269D2B21A707B685B6A5A1C7B68B6
:101E28005A627B685B8D9BB2013B9AB27B685A858C
:101E38007B685B6A7A6812681269D2B21A707B682A
:101E48005B6A5A1C7B685A627B685B8D9BB2013B5C
:101E58009AB27B685A857B681B687A6812685268F0
:101E680022F440725A607B68202283F83D207B6808
:101E780093F83E30DBB2402B0AD17B68002283F80E
:101E88003E207B6800221A637868FFF7D7FC1DE0C4
:101E98007B68002283F83E207B6812221A637868E8
:101EA800FFF78CFC12E07B685B6A7A68126812693B
:101EB800D2B21A707B685B6A5A1C7B685A627B686C
:101EC8005B8D9BB2013B9AB27B685A8500BF103785
:101ED800BD4680BD80B483B000AF78607B6893F85E
:101EE8003E30DBB2402B16D17B681B6D002B08D12E
:101EF8007B681B687A68526CD2B202F0FE021A61E3
:101F080066E07B681B687A68526CD2B242F00102C4
:101F1800D2B21A615CE07B681B69B3F5804F32D19D
:101F28007B6893F83D30DBB2212B08D17B681B68B6
:101F38007A68526CD2B202F0FE021A6108E07B683D
:101F48001B687A68526CD2B242F00102D2B21A61AE
:101F58007B685B6B002B04D07B685B6BDB6B002BB7
:101F680008D17B689B6B002B32D07B689B6BDB6B4B
:101F7800002B2DD07B681B687A681268526842F47F
:101F880000625A6024E07B681B6D002B0ED17B68D1
:101F98001B687A68526C92B2D211D2B202F0060271
:101FA800D2B262F00F02D2B21A6111E07B681B6DE7
:101FB800012B0DD17B681B687A68526C92B2D211E2
:101FC800D2B202F00602D2B262F00E02D2B21A61A6
:101FD80000BF0C37BD465DF8047B704780B483B002
:101FE80000AF78607B681B687A68526CD2B21A615D
:101FF8007B685B6B002B03D17B689B6B002B11D03C
:102008007B685B6BDB6B002B04D17B689B6BDB6BAA
:10201800002B07D07B681B687A681268526842F404
:1020280000625A6000BF0C37BD465DF8047B7047FC
:1020380080B491B000AF78607B6893F83E3087F841
:102048003F307B68DB6ABB637B681B6B7B637B68A9
:1020580093F83D30DBB2222B40F069817B681B6D21
:10206800002B0FD197F83F30402B0BD100233B6357
:102078007B681B685B693B637B681B689B693B6388
:102088003B6B60E17B681B6D002B1DD17B681B6976
:10209800B3F5404F18D10023FB627B681B685B696E
:1020A800FB627B681B689B69FB62FB6A7B681B6839
:1020B8007A681268126842F480721A607B681B6D35
:1020C8005A1C7B681A653EE17B685B8D9BB2002BCE
:1020D80013D10023BB627B681B685B69BB627B68AA
:1020E8001B689B69BB62BB6A7B681B687A6812685D
:1020F800126842F400721A6015E17B685B8D9BB22E
:10210800012B40F08A80BB6B13F5803F37D17B6889
:102118001B687A681268126822F480621A607B6809
:102128001B685B6803F40063B3F5006F13D17B6829
:102138001B687A681268126822F480621A600023A9
:102148007B627B681B685B697B627B681B689B6939
:102158007B627B6AE7E000233B627B681B685B6904
:102168003B627B681B689B693B623B6A7B681B68B8
:102178007A681268126842F400721A60D3E0BB6B86
:10218800082B2ED0BB6B202B2BD07B6B122B02D1B4
:10219800BB6B012B25D1BB6B042B0ED0BB6B022B69
:1021A8000BD0BB6B102B08D07B681B687A68126851
:1021B800126822F480621A6007E07B681B687A68FC
:1021C8001268126842F480621A600023FB617B681F
:1021D8001B685B69FB617B681B689B69FB61FB692A
:1021E800A1E07B681B687A681268126822F4806232
:1021F8001A600023BB617B681B685B69BB617B68F5
:102208001B689B69BB61BB697B681B687A6812683D
:10221800126842F400721A6085E07B685B8D9BB29D
:10222800022B4DD1BB6B042B16D0BB6B022B13D0EA
:10223800BB6B102B10D07B681B687A681268126819
:1022480022F480621A607B681B687A6812681268D8
:1022580042F400621A6007E07B681B687A681268BB
:10226800126842F480621A607B681B685B6803F43A
:102278000063B3F5006F17D1BB6B13F5803F0BD02C
:10228800BB6B012B08D0BB6B082B05D0BB6B102B8D
:1022980002D0BB6B202B07D17B681B687A68126859
:1022A800526842F480525A6000237B617B681B6845
:1022B8005B697B617B681B689B697B617B6932E03A
:1022C8007B681B687A681268126842F480621A6038
:1022D8007B681B685B6803F40063B3F5006F17D174
:1022E800BB6B13F5803F0BD0BB6B012B08D0BB6BCE
:1022F800082B05D0BB6B102B02D0BB6B202B07D152
:102308007B681B687A681268526842F480525A6087
:1023180000233B617B681B685B693B617B681B68CA
:102328009B693B613B697B6800221A650BE00023CF
:10233800FB607B681B685B69FB607B681B689B694B
:10234800FB60FB68FFE700BF4437BD465DF8047BD0
:10235800704780B584B000AF78607B6893F83D30F3
:10236800FB737B685B8D9BB2002B2BD07B681B6853
:102378007A68526A12781A617B685B6A5A1C7B68B1
:102388005A627B685B8D9BB2013B9AB27B685A8527
:102398007B685B8D9BB2002B14D1FB7B292B11D161
:1023A8007B681B687A681268526822F480625A60F7
:1023B8007B6821221A637B68282283F83D2078688D
:1023C800FFF706FA00BF1037BD4680BD80B483B062
:1023D80000AF78607B685B8D9BB2002B11D07B6867
:1023E8001B687A68526A12781A617B685B6A5A1CA1
:1023F8007B685A627B685B8D9BB2013B9AB27B68B3
:102408005A8500BF0C37BD465DF8047B704780B520
:1024180084B000AF78607B6893F83D30FB737B68CD
:102428005B8D9BB2002B2CD07B685B6A7A68126844
:102438001269D2B21A707B685B6A5A1C7B685A624E
:102448007B685B8D9BB2013B9AB27B685A857B683F
:102458005B8D9BB2002B14D1FB7B2A2B11D17B689F
:102468001B687A681268526822F480625A607B6836
:1024780022221A637B68282283F83D207868FFF7B8
:10248800B1F900BF1037BD4680BD80B483B000AF3E
:1024980078607B685B8D9BB2002B12D07B685B6A8F
:1024A8007A6812681269D2B21A707B685B6A5A1C21
:1024B8007B685A627B685B8D9BB2013B9AB27B68F2
:1024C8005A8500BF0C37BD465DF8047B704780B560
:1024D80084B000AF786039600023FB737B6893F8A1
:1024E8003D30DBB203F02803282B25D17B681B681D
:1024F8007A681268526822F480625A603B6803F076
:102508000403002B01D10123FB733B6803F0800314
:10251800002B03D17B68DB68BB8102E07B689B6989
:10252800BB817B68002283F83C20BA89FB7B194673
:102538007868FFF761F908E07B681B686FF00202B2
:102548005A617B68002283F83C2000BF1037BD46E3
:1025580080BD000080B584B000AF78607B6893F8D8
:102568003D30FB737B681B687A681268526822F4F6
:10257800E0625A600023BB607B681B685B69BB60D4
:102588007B681B687A681268126842F001021A6058
:10259800BB687B681B687A681268126822F48062DC
:1025A8001A607B681B685B6803F40063B3F5006F0F
:1025B80072D1FB7B222B02D0FB7B2A2B35D17B6887
:1025C8009B6B1B685B689AB27B685A857B685B8DDE
:1025D8009BB2002B05D07B681B6C43F004027B6820
:1025E8001A647B681B687A681268526822F4006271
:1025F8005A607B689B6B1846FEF707FC0346012B65
:1026080049D07B689B6B694A1A657B689B6B184647
:10261800FEF7D9FB0346002B3DD07B689B6B1B6DF7
:102628007A68926B1046984735E07B685B6B1B684D
:102638005B689AB27B685A857B685B8D9BB2002B7E
:1026480005D07B681B6C43F004027B681A647B68C6
:102658001B687A681268526822F400625A607B68C4
:102668005B6B1846FEF7D1FB0346012B14D07B6841
:102678005B6B4E4A1A657B685B6B1846FEF7A3FBDB
:102688000346002B08D07B685B6B1B6D7A68526B26
:102698001046984700E000BF7B685B8D9BB2002B1B
:1026A8003ED07B681B685B6903F00403042B12D1DE
:1026B8007B685B6A7A6812681269D2B21A707B68A2
:1026C8005B6A5A1C7B685A627B685B8D9BB2013BD4
:1026D8009AB27B685A857B681B685B6903F0400384
:1026E800402B12D17B685B6A7A6812681269D2B291
:1026F8001A707B685B6A5A1C7B685A627B685B8DC0
:102708009BB2013B9AB27B685A857B685B8D9BB212
:10271800002B05D07B681B6C43F004027B681A64AD
:102728007B681B6C002B03D0786800F0B3F839E0A5
:10273800FB7B2A2B09D17B6800221A637B6828223D
:1027480083F83D207868FFF74DF87B6893F83D30B3
:10275800DBB2282B11D17B68154ADA627B6800222C
:102768001A637B68202283F83D207B68002283F867
:102778003E207868FFF74EF814E07B681B6B222B2D
:1027880002D0FB7B222B0DD17B6800221A637B6869
:10279800202283F83D207B68002283F83E20786859
:1027A800FFF720F800BF1037BD4680BD012B000899
:1027B8000000FFFF80B584B000AF78607B6893F8B5
:1027C8003D30FB737B68DB6ABB60BB68082B02D0BB
:1027D800BB68202B29D1FB7B282B26D17B682C4A70
:1027E800DA627B681B687A681268526822F4E062D1
:1027F8005A607B681B686FF480625A617B681B684B
:102808007A681268126822F480621A607B68002273
:102818001A637B68202283F83D207B68002283F8B6
:102828003E207868FEF7F6FF2EE0FB7B212B26D1B1
:102838007B68174ADA627B6821221A637B68202248
:1028480083F83D207B68002283F83E207B681B6864
:102858007A681268526822F4E0625A607B681B68E2
:102868006FF480625A617B681B687A681268126824
:1028780022F480621A607868FEF7AAFF04E07B6899
:102888001B686FF480625A6100BF1037BD4680BD77
:102898000000FFFF80B584B000AF78607B6893F8D4
:1028A8003D30FB737B6893F83E30BB73BB7B102BCA
:1028B80002D0BB7B402B0AD1FB7B222B07D17B6844
:1028C8001B687A681268126822F400621A60FB7B3F
:1028D80003F02803282B07D17B6800221A637B6842
:1028E800282283F83D2015E07B681B685B6803F4A9
:1028F8000063B3F5006F0AD0FB7B602B07D07B68C1
:10290800202283F83D207B68002283F83E207B68E4
:1029180000221A637B681B685B6803F40063B3F5E5
:10292800006F62D17B681B687A681268526822F46B
:1029380000625A607B685B6B93F83530DBB2012B21
:1029480020D07B685B6B6A4A1A657B685B6B1846AC
:10295800FEF739FA0346002B00F089807B681B6874
:102968007A681268126822F001021A607B682022D5
:1029780083F83D207B685B6B1B6D7A68526B104651
:10298800984774E07B689B6B594A1A657B689B6B18
:102998001846FEF718FA0346002B68D07B681B68B8
:1029A8005B6903F04003402B0BD17B685B6A7A6854
:1029B80012681269D2B21A707B685B6A5A1C7B680B
:1029C8005A627B681B687A681268126822F00102F2
:1029D8001A607B68202283F83D207B689B6B1B6D07
:1029E8007A68926B1046984741E07B6893F83D30CF
:1029F800DBB2602B25D17B68202283F83D207B68E1
:102A080000221A647B681B685B6903F04003402B53
:102A18000BD17B685B6A7A6812681269D2B21A7045
:102A28007B685B6A5A1C7B685A627B681B687A6899
:102A38001268126822F001021A607868FEF712FF25
:102A480015E07B681B685B6903F04003402B0BD1E2
:102A58007B685B6A7A6812681269D2B21A707B68FE
:102A68005B6A5A1C7B685A627868FEF7F1FE7B68DD
:102A78001B6CBB60BB6803F00103002B0ED1BB6865
:102A880003F00203002B09D1BB6803F00403002BF9
:102A980004D1BB6803F00803002B07D07B681B68D0
:102AA8007A681268526822F4E0625A607B6893F888
:102AB8003D30FB737B681B6C03F00403042B13D1BC
:102AC800FB7B282B10D17B680A4ADA627B680022DC
:102AD8001A637B68202283F83D207B68002283F8F4
:102AE8003E207868FEF796FE00BF1037BD4680BDD1
:102AF800012B00080000FFFF80B586B000AF7860AA
:102B08000023FB607B689B6B7B617B6993F83D309E
:102B1800FB744B4B1B68DB084A4AA2FB03231A0AC7
:102B280013469B001344DA00D31AFB60FB68002BA2
:102B380006D17B691B6C43F020027B691A640AE0AA
:102B4800FB68013BFB607B691B681B6803F400732F
:102B5800B3F5007FEAD07B695B6B002B03D07B6900
:102B68005B6B0022DA637B699B6B002B03D07B696C
:102B78009B6B0022DA637B691B687A6912681268AA
:102B880022F480621A607B6900225A857B695B6B3C
:102B9800002B03D07B695B6B00221A657B699B6BFA
:102BA800002B03D07B699B6B00221A657B691B682D
:102BB8007A691268126822F001021A607B6993F838
:102BC8003D30DBB2602B0ED17B69202283F83D209B
:102BD8007B69002283F83E207B6900221A647869A9
:102BE800FEF740FE27E0FB7C03F02803282B17D1D3
:102BF8007B691B687A691268126842F001021A60E0
:102C08007B691B687A691268126842F480621A60EC
:102C18007B6900221A637B69282283F83D2007E03C
:102C28007B69202283F83D207B69002283F83E20BF
:102C38007869FEF70DFE00BF1837BD4680BD00BF9E
:102C48000000002089B5F81480B485B000AF786022
:102C58000023FB60134B1B68DB08134AA2FB03230A
:102C68001A0A13469B001344FB60FB68013BFB6098
:102C7800FB68002B07D17B681B6C43F020027B6844
:102C88001A64012308E07B681B681B6803F400735F
:102C9800B3F5007FE9D0002318461437BD465DF828
:102CA800047B70470000002089B5F81480B483B015
:102CB80000AF78607B68DB6AB3F52A0F03D17B68C5
:102CC8000122DA6207E07B68DB6AB3F12A4F02D19E
:102CD8007B680822DA6200BF0C37BD465DF8047BCA
:102CE8007047000080B586B000AF78607B68002B25
:102CF80001D101235BE27B681B6803F00103002B11
:102D080075D0A34B9B6803F00C03042B0CD0A04B8D
:102D18009B6803F00C03082B12D19D4B5B6803F4EE
:102D28008003B3F5800F0BD1994B1B6803F4003374
:102D3800002B5BD07B685B68002B57D1012336E200
:102D48007B685B68B3F5803F06D1914A904B1B685E
:102D580043F4803313601DE07B685B68B3F5A02FF4
:102D68000CD18B4A8A4B1B6843F480231360884A32
:102D7800874B1B6843F4803313600BE0844A844B11
:102D88001B6823F480331360814A814B1B6823F44A
:102D9800802313607B685B68002B13D0FDF7D6FE99
:102DA800386108E0FDF7D2FE02463B69D31A642B6E
:102DB80001D90323FBE1764B1B6803F40033002B96
:102DC800F0D014E0FDF7C2FE386108E0FDF7BEFE62
:102DD80002463B69D31A642B01D90323E7E16C4B04
:102DE8001B6803F40033002BF0D100E000BF7B68C0
:102DF8001B6803F00203002B63D0654B9B6803F04C
:102E08000C03002B0BD0624B9B6803F00C03082BC0
:102E18001CD15F4B5B6803F48003002B16D15C4B1D
:102E28001B6803F00203002B05D07B68DB68012BCD
:102E380001D00123BBE15649554B1B6823F0F8022A
:102E48007B681B69DB0013430B603AE07B68DB6837
:102E5800002B20D04F4B01221A60FDF777FE386116
:102E680008E0FDF773FE02463B69D31A022B01D92D
:102E780003239CE1464B1B6803F00203002BF0D0B0
:102E88004349434B1B6823F0F8027B681B69DB004E
:102E980013430B6015E03F4B00221A60FDF756FE06
:102EA800386108E0FDF752FE02463B69D31A022B4F
:102EB80001D903237BE1364B1B6803F00203002B87
:102EC800F0D17B681B6803F00803002B30D07B68C7
:102ED8005B69002B16D0304B01221A60FDF736FED5
:102EE800386108E0FDF732FE02463B69D31A022B2F
:102EF80001D903235BE1264B5B6F03F00203002B30
:102F0800F0D015E0244B00221A60FDF71FFE38614F
:102F180008E0FDF71BFE02463B69D31A022B01D9D4
:102F2800032344E11A4B5B6F03F00203002BF0D13B
:102F38007B681B6803F00403002B00F0A0800023CB
:102F4800FB75134B1B6C03F08053002B0FD1002330
:102F5800BB600F4A0E4B1B6C43F0805313640C4B41
:102F68001B6C03F08053BB60BB680123FB750B4BE4
:102F78001B6803F48073002B21D1084A074B1B6898
:102F880043F480731360FDF7E1FD386111E000BF81
:102F98000038024000004742800E4742007000405F
:102FA800FDF7D4FD02463B69D31A022B01D903234E
:102FB800FDE0814B1B6803F48073002BF0D07B6825
:102FC8009B68012B06D17D4A7C4B1B6F43F00103A4
:102FD80013671CE07B689B68052B0CD1774A774BFD
:102FE8001B6F43F004031367744A744B1B6F43F061
:102FF800010313670BE0714A704B1B6F23F0010349
:1030080013676E4A6D4B1B6F23F0040313677B68CD
:103018009B68002B15D0FDF799FD38610AE0FDF794
:1030280095FD02463B69D31A41F28832934201D991
:103038000323BCE0614B1B6F03F00203002BEED0AF
:1030480014E0FDF783FD38610AE0FDF77FFD0246D5
:103058003B69D31A41F28832934201D90323A6E08F
:10306800564B1B6F03F00203002BEED1FB7D012BA7
:1030780005D1524A514B1B6C23F0805313647B6873
:103088009B69002B00F092804C4B9B6803F00C036B
:10309800082B5CD07B689B69022B41D1484B0022EE
:1030A8001A60FDF753FD386108E0FDF74FFD024651
:1030B8003B69D31A022B01D9032378E03F4B1B68E5
:1030C80003F00073002BF0D13C497B68DA697B6818
:1030D8001B6A1A437B685B6A9B011A437B689B6A7D
:1030E8005B08013B1B041A437B68DB6A1B0613431E
:1030F8004B60334B01221A60FDF728FD386108E068
:10310800FDF724FD02463B69D31A022B01D903239C
:103118004DE02A4B1B6803F00073002BF0D045E00C
:10312800274B00221A60FDF711FD386108E0FDF712
:103138000DFD02463B69D31A022B01D9032336E061
:103148001E4B1B6803F00073002BF0D12EE07B6848
:103158009B69012B01D1012329E0184B5B68FB60B7
:10316800FB6803F480027B68DB699A421CD1FB6828
:1031780003F03F027B681B6A9A4215D1FA6847F64A
:10318800C07313407A68526A93420DD1FB6803F406
:1031980040327B689B6A9A4206D1FB6803F07062F2
:1031A8007B68DB6A9A4201D0012300E000231846BD
:1031B8001837BD4680BD00BF00700040003802408F
:1031C8006000474280B584B000AF786039607B68A2
:1031D800002B01D10123CCE0684B1B6803F00F02E0
:1031E8003B689A420CD2654B3A68D2B21A70634B6C
:1031F8001B6803F00F023B689A4201D00123B8E034
:103208007B681B6803F00203002B20D07B681B68D7
:1032180003F00403002B05D0594A594B9B6843F42B
:10322800E05393607B681B6803F00803002B05D00C
:10323800534A534B9B6843F4604393605049504B47
:103248009B6823F0F0027B689B6813438B607B6864
:103258001B6803F00103002B44D07B685B68012BDB
:1032680007D1474B1B6803F40033002B19D1012306
:103278007FE07B685B68022B03D07B685B68032B6D
:1032880007D13F4B1B6803F00073002B09D10123C2
:103298006FE03B4B1B6803F00203002B01D10123B5
:1032A80067E03749364B9B6823F003027B685B680D
:1032B80013438B60FDF74AFCF8600AE0FDF746FC13
:1032C8000246FB68D31A41F28832934201D903239C
:1032D8004FE02B4B9B6803F00C027B685B689B00FC
:1032E8009A42EBD1254B1B6803F00F023B689A42C8
:1032F8000CD9224B3A68D2B21A70204B1B6803F0E3
:103308000F023B689A4201D0012332E07B681B68B8
:1033180003F00403002B08D01949194B9B6823F4C8
:10332800E0527B68DB6813438B607B681B6803F0A3
:103338000803002B09D01249114B9B6823F4604203
:103348007B681B69DB0013438B6000F021F80146A2
:103358000B4B9B681B0903F00F030A4AD35C21FA45
:1033680003F3094A1360094B1B681846FDF7AAFBCB
:10337800002318461037BD4680BD00BF003C024000
:1033880000380240584D00080000002004000020CA
:103398002DE9F04F87B000AF0022FA6000227A6171
:1033A8000022BA6000223A61514A926802F00C0287
:1033B800042A07D0082A08D0002A40F090804D4BF4
:1033C8003B618FE04C4B3B618CE0494A526802F00C
:1033D8003F02FA60464A526802F48002002A23D06B
:1033E800434B5B689B094FF0000440F2FF114FF01C
:1033F800000203EA010304EA02043F4A02FB04F163
:10340800002202FB03F20A443B49A3FB01015318C3
:103418001946FB684FF000041A462346FCF7D0FE15
:1034280003460C467B614CE0314A526892091146CA
:103438004FF0000240F2FF154FF0000605EA0105C3
:1034480006EA0206294632464FEA421B4BEAD16B8E
:103458004FEA411A51465A46AA46B34655465E4671
:103468004D1B62EB060629463246940144EA9164F4
:103478008B015B1A64EB02044FEAC40949EA5379E9
:103488004FEAC30843464C4655465E46ED1846EBA0
:1034980004062B463446A2027A607A6842EA9352BE
:1034A8007A609B023B6097E8180018462146FB6843
:1034B8004FF000041A462346FCF782FE03460C46EA
:1034C8007B610B4B5B681B0C03F0030301335B0050
:1034D800BB607A69BB68B2FBF3F33B6102E0054B62
:1034E8003B6100BF3B6918461C37BD46BDE8F08FFD
:1034F800003802400024F40040787D0180B400AF19
:10350800034B1B681846BD465DF8047B704700BF37
:103518000000002080B500AFFFF7F0FF0146054B23
:103528009B689B0A03F00703034AD35C21FA03F361
:10353800184680BD00380240684D000880B500AFCD
:10354800FFF7DCFF0146054B9B685B0B03F00703A5
:10355800034AD35C21FA03F3184680BD00380240C1
:10356800684D000880B582B000AF78607B68002B9A
:1035780001D101234AE07B6893F83930DBB2002B94
:1035880011D17B68002283F83820786800F026FA89
:103598007B685B6E002B02D17B681E4A5A667B688B
:1035A8005B6E786898477B68242283F839207B68AB
:1035B8001B687A681268D26822F40052DA60786868
:1035C80000F0ACFB7B681B687A681268126922F409
:1035D80090421A617B681B687A681268526922F007
:1035E8002A025A617B681B687A681268D26842F4BA
:1035F8000052DA607B680022DA637B68202283F855
:1036080039207B68202283F83A200023184608379F
:10361800BD4680BDE909000880B588B002AFF860F2
:10362800B9603B601346FB8000237B61FB6893F81D
:103638003930DBB2202B40F08280BB68002B02D0EF
:10364800FB88002B01D101237AE0FB6893F838301E
:10365800012B01D1022373E0FB68012283F8382093
:10366800FB680022DA63FB68212283F83920FDF722
:103678006DFA7861FB68FA889A84FB68FA88DA84BC
:10368800FB68002283F8382041E0FB68DB8C9BB2A2
:10369800013B9AB2FB68DA84FB689B68B3F5805FEC
:1036A80021D13B6800937B6900228021F86800F0F3
:1036B800C7F90346002B01D0032341E0BB683B61F7
:1036C800FB681B683A691288C2F308025A60FB68F3
:1036D8001B69002B03D1BB680233BB6017E0BB68D2
:1036E8000133BB6013E03B6800937B6900228021B3
:1036F800F86800F0A5F90346002B01D003231FE06A
:10370800FB681A68BB68591CB9601B785360FB6872
:10371800DB8C9BB2002BB8D13B6800937B690022FD
:103728004021F86800F08CF90346002B01D00323F0
:1037380006E0FB68202283F83920002300E00223FA
:1037480018461837BD4680BD80B588B000AF786090
:103758007B681B681B68FB617B681B68DB68BB6157
:103768007B681B685B697B6100233B610023FB600E
:10377800FB6903F00F033B613B69002B0DD1FB692B
:1037880003F02003002B08D0BB6903F02003002BB3
:1037980003D0786800F03FFAD4E03B69002B00F0D2
:1037A800B3807B6903F00103002B05D1BB6903F4E7
:1037B8009073002B00F0A880FB6903F00103002B35
:1037C8000AD0BB6903F48073002B05D07B68DB6BE0
:1037D80043F001027B68DA63FB6903F00403002B02
:1037E8000AD07B6903F00103002B05D07B68DB6BF3
:1037F80043F002027B68DA63FB6903F00203002BE3
:103808000AD07B6903F00103002B05D07B68DB6BD2
:1038180043F004027B68DA63FB6903F00803002BBA
:103828000FD0BB6903F02003002B04D17B6903F0A0
:103838000103002B05D07B68DB6B43F008027B6833
:10384800DA637B68DB6B002B7BD0FB6903F020031A
:10385800002B07D0BB6903F02003002B02D0786847
:1038680000F0D9F97B681B685B6903F04003402BC3
:103878000CBF01230023DBB2FB607B68DB6B03F02A
:103888000803002B02D1FB68002B33D0786800F0C6
:1038980021F97B681B685B6903F04003402B24D146
:1038A8007B681B687A681268526922F040025A6184
:1038B8007B685B6B002B13D07B685B6B234A1A65B4
:1038C8007B685B6B1846FDF77EFA0346002B19D020
:1038D8007B685B6B1B6D7A68526B1046984711E0EA
:1038E8007B681B6D786898470CE07B681B6D78686F
:1038F800984707E07B681B6D786898477B680022CB
:10390800DA631EE000BF1CE0FB6903F08003002BB4
:1039180008D0BB6903F08003002B03D0786800F05F
:103928000CF90FE0FB6903F04003002B0AD0BB69D8
:1039380003F04003002B05D0786800F053F900BF6E
:1039480000E000BF2037BD4680BD00BF193B00081E
:1039580080B483B000AF786000BF0C37BD465DF817
:10396800047B704780B483B000AF786000BF0C3729
:10397800BD465DF8047B704780B483B000AF7860C3
:1039880000BF0C37BD465DF8047B704780B483B038
:1039980000AF786000BF0C37BD465DF8047B704708
:1039A80080B483B000AF786000BF0C37BD465DF8C7
:1039B800047B704780B483B000AF786000BF0C37D9
:1039C800BD465DF8047B704780B483B000AF786073
:1039D80000BF0C37BD465DF8047B704780B483B0E8
:1039E80000AF78607B680E4A1A647B680D4A5A6497
:1039F8007B680D4A9A647B680C4ADA647B680C4AD7
:103A08001A657B680B4A5A657B680B4A9A657B681E
:103A18000A4ADA6500BF0C37BD465DF8047B70477B
:103A28005939000851060008813900086D39000825
:103A380095390008A9390008BD390008D1390008AE
:103A480080B584B000AFF860B9603B601346FB7185
:103A58002CE0BB69B3F1FF3F28D0BB69002B07D02E
:103A6800FDF774F802463B68D21ABB699A421DD921
:103A7800FB681B68FA681268D26822F4D072DA60B0
:103A8800FB681B68FA681268526922F001025A61E1
:103A9800FB68202283F83920FB68202283F83A202B
:103AA800FB68002283F8382003230FE0FB681B68BB
:103AB8001A68BB681A40BB689A420CBF01230023EE
:103AC800DBB21A46FB799A42C3D000231846103756
:103AD800BD4680BD80B483B000AF78607B681B684A
:103AE8007A681268D26822F49072DA607B681B6880
:103AF8007A681268526922F001025A617B682022B2
:103B080083F83A2000BF0C37BD465DF8047B704748
:103B180080B584B000AF78607B689B6BFB60FB6806
:103B28000022DA85FB680022DA84FB681B6DF868DE
:103B3800984700BF1037BD4680BD80B485B000AF40
:103B480078607B6893F83930DBB2212B43D17B68EE
:103B58009B68B3F5805F19D17B681B6AFB607B6843
:103B68001B68FA681288C2F308025A607B681B69EE
:103B7800002B05D17B681B6A9A1C7B681A620EE0D1
:103B88007B681B6A5A1C7B681A6208E07B681A68A3
:103B98007B681B6A581C796808621B7853607B68CD
:103BA800DB8C9BB2013B9BB27A681946D184002B0F
:103BB8000FD17B681B687A681268D26822F080028D
:103BC800DA607B681B687A681268D26842F0400243
:103BD800DA60002300E0022318461437BD465DF87A
:103BE800047B704780B582B000AF78607B681B6843
:103BF8007A681268D26822F04002DA607B68202274
:103C080083F839207B685B6C7868984700231846EE
:103C18000837BD4680BD80B584B000AF78607B684A
:103C280093F83A30DBB2222B72D17B689B68B3F5EC
:103C3800805F23D17B689B6AFB607B681B69002BD4
:103C48000ED17B681B685B689BB2C3F308039AB20A
:103C5800FB681A807B689B6A9A1C7B689A6229E0D9
:103C68007B681B685B689BB2DBB29AB2FB681A8000
:103C78007B689B6A5A1C7B689A621BE07B681B699D
:103C8800002B0AD17B689B6A591C7A6891627A6812
:103C980012685268D2B21A700CE07B689B6A591C91
:103CA8007A6891627A6812685268D2B202F07F022A
:103CB800D2B21A707B68DB8D9BB2013B9BB27A68EB
:103CC8001946D185002B21D17B681B687A68126858
:103CD800D26822F02002DA607B681B687A68126872
:103CE800D26822F48072DA607B681B687A6812688E
:103CF800526922F001025A617B68202283F83A2037
:103D08007B68DB6C78689847002302E0002300E0BA
:103D1800022318461037BD4680BD00002DE9F04F3C
:103D2800A3B000AFF867FB6F1968FB6F1B681B69CE
:103D380023F44052FB6FDB6813430B61FB6F9A68F7
:103D4800FB6F1B691A43FB6F5B691A43FB6FDB69E7
:103D58001343C7F88430FB6F1968FB6F1B68DB6877
:103D680023F4164222F00C02D7F884301343CB60B8
:103D7800FB6F1968FB6F1B685B6923F44072FB6F6C
:103D88009B6913434B61FB6FDB69B3F5004F40F050
:103D98007181FB6F1B68B44A934205D0FB6F1B68A7
:103DA800B24A934240F0B180FFF7C8FBC7F88000E1
:103DB800FB6F1D68D7F8803019464FF000020B469C
:103DC8001446DB1844EB04045B1844EB0204E000DF
:103DD8007864786C40EA53707864DB003B64D7E918
:103DE800103413EB010844EB020940464946FB6FC7
:103DF8005B684FF00004DB1844EB04041A462346C2
:103E0800FCF7DEF903460C461A46994BA3FB02233E
:103E18005B091E01D7F8803019464FF000020B46A7
:103E28001446DB1844EB04045B1844EB0204E0007E
:103E3800F863F86B40EA5370F863DB00BB63D7E9BB
:103E48000E3413EB010844EB020940464946FB6F68
:103E58005B684FF00004DB1844EB04041A46234661
:103E6800FCF7AEF903460C461A46814BA3FB021336
:103E78005B09642101FB03F3D31ADB0032337C4A6C
:103E8800A2FB03235B095B0003F4F8731E44D7F815
:103E9800803019464FF000020B461446DB1844EBFD
:103EA80004045B1844EB0204E0007863786B40EA92
:103EB80053707863DB003B63D7E90C3413EB0108DC
:103EC80044EB020940464946FB6F5B684FF000042B
:103ED800DB1844EB04041A462346FCF771F9034641
:103EE8000C461A46624BA3FB02135B09642101FBD3
:103EF80003F3D31ADB0032335D4AA2FB03235B09C9
:103F080003F007033344AB6040E2FFF703FBC7F855
:103F18008000FB6F1A683A67D7F8803019464FF06F
:103F280000020B461446DB1844EB04045B1844EB10
:103F38000204E000F862F86A40EA5370F862DB00B5
:103F4800BB62D7E90A345D1844EB020628463146BD
:103F5800FB6F5B684FF00004DB1844EB04041A465F
:103F68002346FCF72DF903460C461A46404BA3FBA3
:103F780002235B091E01D7F8803019464FF0000272
:103F88000B461446DB1844EB04045B1844EB0204AC
:103F98004FEAC40B4BEA537B4FEAC30A53465C46CD
:103FA80013EB010A44EB020B50465946FB6F5B6862
:103FB8004FF00004DB1844EB04041A462346FCF7D0
:103FC800FFF803460C461A46294BA3FB02135B096C
:103FD800642101FB03F3D31ADB003233244AA2FB2A
:103FE80003235B095B0003F4F8731E44D7F88030A1
:103FF80019464FF000020B461446DB1844EB040444
:104008005B1844EB02044FEAC40949EA53794FEAC2
:10401800C30843464C4613EB010844EB02094046EB
:104028004946FB6F5B684FF00004DB1844EB04045F
:104038001A462346FCF7C4F803460C461A460C4BAE
:10404800A3FB02135B09642101FB03F3D31ADB0012
:104058003233074AA2FB03235B0903F00703334407
:104068003A6F936092E100BF0010014000140140D4
:104078001F85EB51FB6F1A68C14B9A4205D0FB6F45
:104088001A68C04B9A4240F0BF80FFF757FAC7F84A
:104098008000FB6F1E68D7F8803019464FF0000289
:1040A8000B461446DB1844EB04045B1844EB02048B
:1040B800E0007862786A40EA53707862DB003B621D
:1040C800D7E9083413EB010844EB02094046494696
:1040D800FB6F5B684FF00004A200FA65FA6D42EAD4
:1040E8009372FA659B00BB65D7E91623FCF768F85D
:1040F80003460C461A46A44BA3FB02235B091D0189
:10410800D7F8803019464FF000020B461446DB18EA
:1041180044EB04045B1844EB0204E000F861F8691E
:1041280040EA5370F861DB00BB61D7E9063413EB52
:10413800010844EB020940464946FB6F5B684FF0B3
:104148000004A2007A657A6D42EA93727A659B0050
:104158003B65D7E91423FCF733F803460C461A46A7
:10416800894BA3FB02135B09642101FB03F3D31AF8
:104178001B013233844AA2FB03235B0903F0F003DB
:104188001D44D7F8803019464FF000020B461446FC
:10419800DB1844EB04045B1844EB0204E00078618C
:1041A800786940EA53707861DB003B61D7E90434F1
:1041B80013EB010844EB020940464946FB6F5B6874
:1041C8004FF00004A200FA64FA6C42EA9372FA64AF
:1041D8009B00BB64D7E91223FBF7F2FF03460C46AA
:1041E8001A46694BA3FB02135B09642101FB03F325
:1041F800D31A1B013233644AA2FB03235B0903F081
:104208000F032B44B360C1E0FFF784F9C7F88000BF
:10421800FB6F1B68BB65D7F8803019464FF000026A
:104228000B461446DB1844EB04045B1844EB020409
:10423800E60046EA5376DD002B4634465D1844EB2B
:10424800020628463146FB6F5B684FF00004A50064
:104258007D677D6F45EA93757D679C003C67D7E96C
:104268001C23FBF7ADFF03460C461A46464BA3FB3F
:1042780002135B091D01D7F8803019464FF0000280
:104288000B461446DB1844EB04045B1844EB0204A9
:10429800E000F860F86840EA5370F860D800B86049
:1042A800D7E9023413EB010844EB020940464946BA
:1042B800FB6F5B684FF00004A600FE66FE6E46EAE0
:1042C8009376FE669C00BC66D7E91A23FBF778FF55
:1042D80003460C461A462C4BA3FB02135B096421C8
:1042E80001FB03F3D31A1B013233274AA2FB031342
:1042F8005B0903F0F0031D44D7F8803019464FF0EE
:1043080000020B461446DB1844EB04045B1844EB2C
:104318000204E0007860786840EA53707860D8005A
:10432800386097E8180013EB010844EB020940468F
:104338004946FB6F5B684FF00004A6007E667E6E00
:1043480046EA93767E669C003C66D7E91823FBF71D
:1043580037FF03460C461A460B4BA3FB02135B09B7
:10436800642101FB03F3D31A1B013233064AA2FB73
:1043780003135B0903F00F032B44BA6D936005E048
:1043880000100140001401401F85EB5100BF8C371D
:10439800BD46BDE8F08F00BFDFF834D0002103E050
:1043A8000C4B5B58435004310B480C4B42189A4253
:1043B800F6D30B4A02E0002342F8043B094B9A4229
:1043C800F9D3FCF7CDFA00F017F8FCF75BF9704762
:1043D80000000220E44D00080000002070000020CA
:1043E8007000002060010020FEE70000014B186803
:1043F800704700BF0C00002070B50D4E0D4CA41B7B
:10440800A4100025A54209D10B4E0C4C00F08EFCDF
:10441800A41BA4100025A54205D170BD56F825306F
:1044280098470135EEE756F8253098470135F2E709
:10443800DC4D0008DC4D0008DC4D0008E04D0008AC
:1044480002440346934200D1704703F8011BF9E781
:1044580070B50E46054618B183690BB900F00EFA1F
:10446800AB69AC6813B9284600F008FA234B9C42A4
:1044780017D16C68A3891B071DD52369DBB1013EE1
:10448800A36816F8011F013BA360E9B9002B2EDAD7
:1044980022460A21284600F03FF8013011D00A20B0
:1044A80070BD174B9C4201D1AC68E3E7154B9C42A9
:1044B80008BFEC68DEE72146284600F07FF80028B0
:1044C800DDD04FF0FF3070BD002B04DAA2699342B3
:1044D80006DB0A2904D023685A1C22601970CFE72A
:1044E8002246284600F018F80130C9D1E9E72368C8
:1044F8000A205A1C2260187070BD00BF944D000835
:10450800B44D0008744D0008024B01461868FFF7C7
:104518009FBF00BF0C000020F8B50E4614460546A4
:1045280018B183690BB900F0A9F9214B9C422AD133
:104538006C68A369A360A3891A072ED5236963B39E
:1045480023692068C01A6369F6B29842374604DBCB
:104558002146284600F028F928BBA368013BA36040
:1045680023685A1C22601E7063690130984204D087
:10457800A389DB0719D50A2E17D12146284600F052
:1045880013F990B10FE00B4B9C4201D1AC68D0E716
:10459800094B9C4208BFEC68CBE72146284600F04F
:1045A8000DF80028CCD04FF0FF373846F8BD00BFD3
:1045B800944D0008B44D0008744D0008324B70B596
:1045C8001D6806460C4625B1AB6913B9284600F0AC
:1045D80055F92E4B9C420FD16C68B4F90C309AB245
:1045E80015072CD4D00611D40922326043F04003B9
:1045F800A3814FF0FF3070BD254B9C4201D1AC68C0
:10460800EBE7244B9C4208BFEC68E6E7510712D55C
:10461800616B41B104F14403994202D0304600F085
:104628001BFA00236363A38923F02403A3810023D7
:10463800636023692360A38943F00803A381236986
:104648004BB9A38903F42073B3F5007F03D0214647
:10465800304600F0C1F9A28912F001030CD0002302
:10466800A36063695B42A361236953B9B4F90C3051
:1046780013F08000BAD170BD920758BF6369A36078
:10468800F2E70020F7E700BF0C000020944D000877
:10469800B44D0008744D00088A892DE9F04105469B
:1046A80010070C465AD44B68002B05DC0B6C002B0A
:1046B80002DC0020BDE8F081E66A002EF9D0002374
:1046C80012F480522F682B6033D0606DA3895A078B
:1046D80005D56368C01A636B0BB1236CC01A00233D
:1046E8000246E66A216A2846B047431CA38906D1D8
:1046F80029681D294BD82B4ACA40D60747D500221E
:104708006260D9042269226004D5421C01D12B6859
:1047180003B96065616B2F600029CAD004F14403B6
:10472800994202D0284600F097F900206063BDE85E
:10473800F081216A01232846B047411CC6D12B6865
:10474800002BC3D01D2B01D0162B01D12F60B0E751
:10475800A38943F04003A381BDE8F0810F69002FCE
:10476800A7D093070E6808BF4B690F6018BF0023D6
:10477800A6EB07088B60B8F1000F9ADD43463A466E
:10478800216AA66A2846B047002807DCA38943F0B7
:104798004003A3814FF0FF30BDE8F0810744A8EB48
:1047A8000008E8E70100402038B50B6905460C46CB
:1047B800DBB118B183690BB900F060F80C4B9C426F
:1047C80009D16C68B4F90C307BB121462846BDE8A4
:1047D8003840FFF761BF074B9C4201D1AC68F1E755
:1047E800054B9C4208BFEC68ECE7002038BD00BFD1
:1047F800944D0008B44D0008744D0008014900F0BC
:10480800A9B800BFB1470008002310B504460360EB
:104818004360836081814366C28103614361836130
:10482800194608225C30FFF70BFE054B6362054B07
:10483800A362054BE362054B2462236310BD00BFEE
:10484800D94B0008FB4B0008334C0008574C0008B4
:1048580070B54A1E682555430E4605F1740100F0EF
:1048680049F9044640B1002180E842000C30A060BC
:1048780005F16802FFF7E4FD204670BD836910B5B5
:10488800044633BB8364C3640365124B124A1B6836
:104898008262984204BF0123836100F01FF86060C0
:1048A800204600F01BF8A060204600F017F8002210
:1048B800E06004216068FFF7A7FF01220921A068D2
:1048C800FFF7A2FF02221221E068FFF79DFF0123F4
:1048D800A36110BD704D000805480008F8B51C4BD1
:1048E8001E68B369074613B93046FFF7C7FF483655
:1048F800B4687368013B03D5336833B13668F7E7AA
:10490800B4F90C506DB16834F4E704213846FFF768
:104918009FFF30600028F1D10C233B6004462046FD
:10492800F8BD4FF6FF73E3810123A3816566256017
:10493800A560656025616561A5610822294604F1C5
:104948005C00FFF77DFD6563A563A564E564E6E7A4
:10495800704D00082DE9F8438046894600F1480467
:10496800002614B93046BDE8F883A5686768013F9A
:1049780001D52468F5E7AB89012B07D9B5F90E30C5
:10498800013303D029464046C84706436835EEE759
:1049980070B50E46B1F90E10002990B014461D46A8
:1049A80007DA00232B60B3891A0610D44FF480630A
:1049B8000EE001AA00F072F90028F2DB029A02F474
:1049C8007042A2F500535A425A412A60EEE740234A
:1049D8000020236010B070BD8B8973B59D07064613
:1049E8000C4607D504F14703236023610123636163
:1049F80002B070BD01AB6A46FFF7CAFF00990546D1
:104A0800304600F077F848B9B4F90C309A05EFD47D
:104A180023F0030343F00203A381E3E70D4BB362E2
:104A2800A389206043F08003A381009B6361019BFD
:104A380020615BB1B4F90E10304600F041F928B19D
:104A4800A38923F0030343F00103A381A3891D4332
:104A5800A581CDE70548000838B50546002945D0A9
:104A680051F8043C0C1F002BB8BFE41800F04AF9B9
:104A78001F4A1368104633B9636014602846BDE8BE
:104A8800384000F040B9A3420CD92168621893421B
:104A980004BF1A685B68636004BF52182260046030
:104AA800ECE713465A680AB1A242FAD919685818AD
:104AB800A0420BD120680144581882421960DDD108
:104AC800106852685A6001441960D7E702D90C236C
:104AD8002B60D3E7206821188A4204BF1168526806
:104AE800626004BF091821605C60C7E738BD00BF79
:104AF8009000002070B5CD1C25F0030508350C2D5D
:104B080038BF0C25002D064601DBA94203D90C232A
:104B18003360002070BD00F0F5F8234A1468214680
:104B280091B9224C23681BB9304600F041F8206047
:104B38002946304600F03CF8431C26D10C2333604C
:104B4800304600F0E0F8E4E70B685B1B1AD40B2B47
:104B58000FD90B60CD50CC18304600F0D4F804F1D2
:104B68000B00231D20F00700C31A1BD05A42E25045
:104B780070BD8C420DBF63684B686360136018BFDB
:104B88000C46E9E70C464968CAE7C41C24F003044C
:104B9800A04205D0211A304600F00AF80130CDD0E5
:104BA8002560D9E770BD00BF900000209400002068
:104BB80038B5064C0023054608462360FBF770FE0F
:104BC800431C02D1236803B12B6038BD5C0100206F
:104BD80010B50C46B1F90E1000F096F80028ABBFDE
:104BE800636DA3891B1823F48053ACBF6365A3814D
:104BF80010BD2DE9F0411F468B89DB0505460C46A3
:104C0800164605D502230022B1F90E1000F068F807
:104C1800A389B4F90E1023F48053A38132463B468E
:104C28002846BDE8F04100F017B810B50C46B1F9B8
:104C38000E1000F055F8431CA38915BF606523F4D6
:104C4800805343F48053A38118BFA38110BDB1F9E9
:104C58000E1000F013B8000038B5074C054608469A
:104C68001146002222601A46FBF7F8FC431C02D1C9
:104C7800236803B12B6038BD5C01002038B5064CB1
:104C88000023054608462360FBF736FE431C02D185
:104C9800236803B12B6038BD5C01002038B5074C90
:104CA80000230546084611462360FBF731FE431CE6
:104CB80002D1236803B12B6038BD00BF5C0100201E
:104CC80038B5064C0023054608462360FBF730FE3E
:104CD800431C02D1236803B12B6038BD5C0100205E
:104CE80038B5074C054608461146002222601A4688
:104CF800FBF729FE431C02D1236803B12B6038BDA2
:104D08005C0100207047704738B5074C05460846D7
:104D18001146002222601A46FBF7A4FD431C02D16B
:104D2800236803B12B6038BD5C010020F8B500BFD3
:104D3800F8BC08BC9E467047F8B500BFF8BC08BC74
:044D48009E467047CC
:104D4C0048656C6C6F20776F726C6400000000001B
:104D5C00000000000102030406070809000000001F
:104D6C0001020304100000200000000000000000FD
:104D7C000000000000000000000000000000000027
:104D8C000000000000000000000000000000000017
:104D9C000000000000000000000000000000000007
:104DAC0000000000000000000000000000000000F7
:104DBC0000000000000000000000000000000000E7
:084DCC000000000000000000DF
:084DD40024B4FF7F0100000080
:044DDC00AD0100081D
:044DE000890100083D
:104DE4000024F40010000000010000001000002066
:104DF40000000000944D0008B44D0008744D0008F4
:104E0400000000000000000000000000000000009E
:104E1400000000000000000000000000000000008E
:104E2400000000000000000000000000000000007E
:104E3400000000000000000000000000000000006E
:104E4400000000000000000000000000000000005E
:04000005080043A10B
:00000001FF
